:100000000C9434000C94DE000C9449000C944900CC
:100010000C9449000C9449000C9449000C9449003C
:100020000C9449000C9449000C9449000C9449002C
:100030000C9449000C9449000C9449000C9449001C
:100040000C9449000C9449000C9449000C9449000C
:100050000C9449000C9449000C9449000C944900FC
:100060000C9449000C94490011241FBECFEFD8E036
:10007000DEBFCDBF11E0A0E0B1E0E2EAF2E002C0F5
:1000800005900D92A233B107D9F70E9412010C948A
:100090004F010C940000419A85E08A95F1F7000029
:1000A00041988FE891E00197F1F700C000000895B2
:1000B00098B1937C98B980FD429A81FD439A82FD64
:1000C000449A83FD459A0C944B00CF93C82F4098D7
:1000D00082958F700E9458008C2F8F700E9458005C
:1000E0008FE39FE10197F1F700C00000CF910895E1
:1000F000CF93C82F409A85958595859585950E94C3
:1001000058008C2F8F700E9458008FE39FE1019759
:10011000F1F700C00000CF91089587B18F6387B9D0
:100120008FEF99EF20E0815090402040E1F700C030
:100130000000409883E00E9458008FE19EE4019700
:10014000F1F700C0000083E00E94580087E592E0CC
:100150000197F1F700C0000083E00E9458008FE192
:100160009EE40197F1F700C0000082E00E94580071
:100170008FE19EE40197F1F700C0000088E20E9441
:1001800065008CE00E94650086E00E94650081E0C9
:100190000E9465008FE19EE40197F1F700C0000026
:1001A0000895CF93DF93EC018881811103C0DF9123
:1001B000CF91089521960E947800F6CF189584B1CA
:1001C000816284B952985A9A8091690082608093C2
:1001D0006900809169008E7F80936900E89A089594
:1001E00083B7877F83BF83B7846083BF83B78D7FE7
:1001F00083BF83B7816083BF81E00E94650080E098
:1002000091E00E94D1008FEF91EE24E08150904068
:100210002040E1F700C000007894889583B78E7F76
:1002200083BF08950E94DF000E948D0081E00E943C
:10023000650080E191E00E94D10080EC0E946500A1
:100240008FE191E00E94D1002D9A28988FEF9BE7D3
:1002500022E9815090402040E1F700C000002D9835
:100260000E94F00081E00E94650086E291E00E9419
:10027000D100289A2D9A8FEF99E628E1815090407D
:100280002040E1F700C0000028988FEF9DE329E4AB
:10029000815090402040E1F700C00000C7CFF894A3
:0202A000FFCF8E
:1002A2005A7A7A2E2E2E20536C656570696E67001D
:1002B20053797374656D3A204E4F524D414C004C48
:1002C2004544204F4E0057414B494E47205550213F
:0202D20000002A
:00000001FF
